:10000000E07F0010CD000000351C0000371C000010
:10001000391C00003B1C00003D1C000000000000DB
:10002000000000000000000000000000991E000019
:100030009B1E0000000000009D1E00009F1E00008F
:10004000A11E0000A11E0000A11E0000A11E0000B4
:10005000A11E00009D080000A11E0000A11E0000BE
:10006000A11E0000A11E0000A11E0000A11E000094
:10007000A11E0000A11E0000A11E0000A11E000084
:10008000A11E0000A11E0000A11E0000A11E000074
:10009000A11E0000A11E0000A11E0000A11E000064
:1000A00089150000A11E0000A11E0000A11E000075
:1000B000A11E0000A11E0000A11E0000A11E000044
:1000C000A11E0000A11E0000A11E00000D490E4A45
:1000D0000E4B9A423EBF51F8040B42F8040BF8E76E
:1000E00000200B490B4A91423CBF41F8040BFAE750
:1000F0000948804709488047094880470948004720
:10010000FEE7000090380000000000109000001092
:1001100090000010E00B0010911F0000A51E0000D1
:100120009B180000ED19000010B5054C237833B979
:10013000044810B10448AFF300800121217010BDC4
:1001400090000010000000003C38000008B5064B8D
:100150001BB106480649AFF300800648016811B19B
:10016000054A02B1904708BD000000003C3800007D
:10017000940000100000001000000000084B000474
:10018000D3F808223022C3F8082240F4A061D3F843
:100190001022C3F81012D3F80022D206FBD5704704
:1001A00000C000500A4B0004D3F808222022C3F8F4
:1001B000082240F40071D3F81022C3F81012D3F8CB
:1001C00000229106FBD5024BD3F81402C0B270474F
:1001D00000C00050094BD3F80822102200FA02F0A8
:1001E000C3F8082240F48070D3F81022C3F810023C
:1001F000D3F80012C806FBD5704700BF00C00050FE
:1002000010B5044672B6D020034B984744F08000E6
:100210000249884762B610BD7D010000D50100008B
:1002200010B5044672B6D820034B984720460349C0
:10023000884762B610BD00BF7D010000D5010000F7
:1002400010B5044672B6F320034B98472046034985
:10025000884762B610BD00BF7D010000D5010000D7
:1002600010B5044672B6FE20034B9847204603495A
:10027000884762B610BD00BF7D010000D5010000B7
:1002800008B572B6FE20034B9847FE200249884706
:1002900062B608BD7D010000A501000010B572B670
:1002A00000F00F04C00940EA44042046034B98477D
:1002B00020460349884762B610BD00BF7D0100009B
:1002C000A501000072B600F00F03C00940EA430127
:1002D000012202FA01F0074BD3F83822C3F83802A2
:1002E000D3F800128A06FBD5024AD2F8140262B68D
:1002F000C0B2704700C0005010B50C4672B600F096
:100300000F03C00940EA430141F04000034A90470F
:100310002046034B984762B610BD00BF7D01000028
:10032000D501000008B572B6F220034B9847F220C1
:100330000249884762B608BD7D010000A5010000A2
:1003400008B572B6FA20024B984762B608BD00BFE6
:100350007D01000008B5044B984740F00100C0B291
:100360000249884708BD00BF810200006102000009
:1003700008B5034B9847034900F0FE00884708BDC5
:10038000810200006102000037B5324B01220446B1
:10039000002002291A708DF804008DF803002E4BFE
:1003A00004D1032C3BD118602C4D33E029B9012C2A
:1003B00035D103221A602A4A17E00A2904D10B2CEE
:1003C0002DD1022018601CE00F2904D1102C26D159
:1003D0001A60244D1EE0192901D11A2C16E040297B
:1003E00009D1412C1BD11A601E4A1F4B02251A60ED
:1003F0008DF8025018E0482905D1492C0FD102226E
:100400001A601A4D06E09C2909D19D2C07D10322C0
:10041000134D1A60144B8DF802201D6004E00E4845
:100420004FF0FF31016014E001F01F05C1F34212EB
:100430008DF8015068460E4D8DF80020A847C4F392
:100440004211684604F01F048DF800108DF8014039
:10045000A8473EBDD8040010C802001000C00040EC
:1004600000C0094000000140D40400100080094091
:10047000252100002DE9F04F984B002498491C706D
:100480004A68984E4C600A680C607268964F7460B7
:10049000326834603B68954A8BB0089390428CBFB9
:1004A000012603264FEA001B0794A4460294234624
:1004B000089ACDF80CB0F240510057010997049109
:1004C00001910127DDF80C800022BA424FD0DDF8FF
:1004D0000490B9FBF8F5691C4D08B5F5803F43D28F
:1004E000002D08BF012512B1012D08BF02251103FF
:1004F0006943DDF824A0B1FBF7F101EB0539BAFB44
:10050000F9F94FEAC90181422DBFC0EB0109C1EBE6
:10051000000ACDF814A0CDF8149083422BBFC0EB95
:100520000309C3EB000ACDF81890CDF818A0DDF848
:100530001490DDF818A0D14516D2F3B25FFA87F90E
:10054000814202931FFA85FCCDF81C90D4B228D0CA
:100550002CBFC0EB0103C1EB00034FF4C0656B433C
:10056000B3FBF0F3EBB10B460132D844ADE7571CB7
:10057000DDF80CA00199049ADA448918102FCDF8FF
:100580000CA001919ED183422CBFC0EB0302C3EBB0
:100590000002C8214A43B2FBF0F212B1013E032E21
:1005A00086D90299524B02299EBF5249DDF8089024
:1005B00011F80920196888BF0322032957D8DFE8FA
:1005C00001F002172C414C4BD3F8C45045F0080100
:1005D000D3F8C450C3F8C410D3F8A81121F0C00157
:1005E00041EA8212D3F8A811C3F8A82105223FE0FE
:1005F000414BD3F8C45045F01001D3F8C450C3F8B0
:10060000C410D3F8A81121F4407141EA0222D3F8B2
:10061000A811C3F8A82106222AE0374BD3F8C4500A
:1006200045F08071D3F8C450C3F8C410D3F8AC11AE
:1006300021F4403141EA0242D3F8AC11C3F8AC21B5
:10064000072215E02C4BD3F8C45045F00071D3F8C5
:10065000C450C3F8C410D3F8AC1121F4402141EACE
:100660008242D3F8AC11C3F8AC21082200E0FF228B
:10067000224B5FFA8CFA1B6804F00F04197B41F0DF
:10068000800119734FEA1C21197183F800A0197BAE
:1006900001F07F011973079944EA0114E1B20724BC
:1006A00083F828101C7203210024197383F8244056
:1006B00093F8301041F0800483F8304053B20124A5
:1006C00002F01F0204FA02F259090D4B53F82140BF
:1006D00043F821200BB0BDE8F08F00BFC40200102A
:1006E000CC020010BC0000108C0000103F420F0034
:1006F000C80200106C37000000C00F40D404001086
:1007000000E100E010B5034B14469847204602492B
:10071000884710BD89030000750400000F4B18685E
:10072000032819D8DFE800F002070C110C49D1F8B2
:10073000802020220EE00A49D1F88020402209E0E2
:100740000749D1F88020802204E00549D1F88020B3
:100750004FF48072C1F88020704700BFC8020010BB
:1007600000E100E0074B1868017D01F04002D3B2C0
:1007700033B9054908684A68831AD905C80D704716
:1007800000207047D4040010CC02001038B51B4C78
:100790000121206800221A4B984720681949884790
:1007A0000128FAD015480068174D2A686C6884EA59
:1007B0000203DA050CD06C6829190A7A631C0270EE
:1007C00069686B606C68E105CA0D69686A60EBE78F
:1007D00028686968094A4140C805C50D084B0B4C9B
:1007E00028B9106801212A469847257038BD012193
:1007F00010680A462170984738BD00BFD404001025
:10080000BD21000013220000CC020010C402001021
:1008100010B50D4B1968087DC30713D50B4B0C7829
:1008200058681A6801324240D205F4D01A68981804
:100830000472013218681A601868C205D20D18686F
:100840001A60E8E710BD00BFD4040010BC0000101F
:1008500038B50D4D0D4B2868984700F00E04062C56
:1008600006D128680A4A904710F09E0F0AD0FEE78A
:10087000042C01D00C2C01D106488047022C01D158
:100880000549884738BD00BFD40400100922000084
:1008900005220000110800008D07000008B5014B7B
:1008A000984708BD51080000014B1860704700BF11
:1008B000300500100548064A0023022153701370CA
:1008C000017143718371C371704700BFDC04001074
:1008D000EE04001070B51B4B1B4998890B68040A85
:1008E0000022C0B2197821B35D78A5421FD1651EE0
:1008F000042D0BD8DFE805F003060A0909000022E1
:10090000104603E05879024600E09A7882420DD101
:100910000C4E022C33600ABF5B8871607360318AB1
:10092000706888420CDD074A516070BD01325B1867
:10093000D8E7044B0122197159719971D9711A7252
:1009400070BD00BFDC0400103005001008B50120A8
:10095000014B984708BD00BF210200000448054B29
:10096000002201211970017142718271C2717047B8
:10097000DC040010EE04001008B50448837A13F07C
:100980007C0F01D00249884708BD00BFDC0400107D
:100990009D1D000008B5002008221A491A4B9847EF
:1009A00008282DD1194800214172817A038A184AFA
:1009B00011F07C0F4360026003461FD1C07A092802
:1009C00019D8DFE800F0051D181D1807111D1315B3
:1009D000104A0EE09989104BC8B298470021802038
:1009E0000A460E4B984708BD0D4A02E00D4A00E04A
:1009F0000D4A904708BD0D48804708BD0C4A9047F6
:100A000008BD00BFE604001079130000DC040010EC
:100A1000EE040010B508000001020000F51300000C
:100A2000D50800005D0900004D0900007D1400009C
:100A3000391D000038B5194C637A002B2DD1A07AEE
:100A4000656800F08001CAB2EAB19DB12168402D0D
:100A500034BF2A464022124B8020984761682268A2
:100A60000B1A111863602160BBB9402815D1012011
:100A7000207238BD227A82B1802029462A46084B4E
:100A80009847257238BD45B9294680202A46044B2F
:100A90009847012003496072884738BDDC04001084
:100AA000F51300007909000010B5184C637A002B8B
:100AB00025D1A07A626800F08001C8B288B9144BD1
:100AC00052B1216898476168884215DC0B1A216889
:100AD00063600818206010BD10461146984798B111
:100AE0000AE04AB910461146094B984720B901223D
:100AF00008486272804710BD074A904710BD002029
:100B000006494022024B984710BD00BFDC0400108C
:100B100079130000790900007D140000EE04001034
:100B200008B5014B984708BDF11FFF1F054B10B5D5
:100B3000322458609960DA6018460349034A1C6001
:100B4000904710BD3405001048050010210B00002F
:100B5000054B10B5342458609960DA601846034993
:100B6000034A1C60904710BD340500104805001072
:100B7000210B000038B5054672B604240F2C03D8AB
:100B8000230303F6FF7203E0E303A3F5D020421E24
:100B9000914218D20F2C01D8220302E0E003A0F505
:100BA000E022914209D1204621462A46084B984727
:100BB000204621462A46074B9847204621462A468A
:100BC000034B984702E001341E2CD7D162B638BDE2
:100BD0002D0B0000510B000038B5044672B60648D4
:100BE00033254160C3600549054B0560826004619F
:100BF000984762B638BD00BF3405001048050010A4
:100C0000210B00001C4B2DE9F0411C6804B9186051
:100C10001A4800230468934205D0194DCE5C65192B
:100C2000EE540133F7E705685D19B5F5007F0560FF
:100C30001ED1DFF85C80104CD8F800004FF47A77B2
:100C4000104EB0FBF7F021680F4A9047306880B92A
:100C5000D8F800102B46B1FBF7F0094A21680B4D7C
:100C6000A847306828B9054B20601860BDE8F081BE
:100C70000020BDE8F08100BFAC000010B000001003
:100C80005C05001048050010750B0000D90B000032
:100C90008C0000100131002370B5891A05461846F2
:100CA0008B420EDA9C18A5EBE406F67B04F00704F1
:100CB00046FA04F404F0010404FA03F40133204377
:100CC000EEE770BD10B51C46064B98470649204616
:100CD00088472046054A90472046054B98470548D7
:100CE000048010BD11160000D1170000F917000094
:100CF000191800006C070010034B1868D0F10100B0
:100D000038BF0020704700BF74070010014B1868FF
:100D1000704700BF740700104FF400707047000068
:100D200038B51C4B0D4604461B49B3F900008847F3
:100D300044F04000C0B2194CA047280EA047C5F3AC
:100D40000740A047C5F30720A047E8B2A047952079
:100D5000A0474FF48055FF20104CA04720F07F02A1
:100D600012F0FF0F08D105460A480D4AB0F90000FD
:100D70009047FF20A0470AE0013DECD1054B084910
:100D8000B3F900008847FF20A0474FF0FF35284601
:100D900038BD00BF6C070010351800008117000037
:100DA0001918000038B54FF4805400213720074D42
:100DB000A84729200021A84718B9054B0120186031
:100DC00038BD013CF1D1204638BD00BF210D0000E7
:100DD0007007001038B5174B0D4604461649B3F995
:100DE0000000884744F04000C0B2144CA047280ED1
:100DF000A047C5F30740A047C5F30720A047E8B2C6
:100E0000A0479520A0474FF48054FF200B4DA847E2
:100E100020F07F0212F0FF0F0AD0013CF5D1054B04
:100E20000749B3F900008847FF20A8474FF0FF307B
:100E300038BD00BF6C070010351800008117000096
:100E400019180000F8B5234B23490546B3F90000F3
:100E50008847224C7A20A0470020A0470020A047C6
:100E60000020A0470020A0479520A0474FF48056BF
:100E7000FF201A4CA04720F07F0212F0FF0F1BD179
:100E80000646FF20A04707062F60FF20A04747EA3D
:100E900000472F60FF20A04747EA00272F60FF2070
:100EA000A0470C4A47EA00012960B2F900000C4B48
:100EB0009847FF20A0470AE0013ED9D10548084BDA
:100EC000B0F900009847FF20A0474FF0FF363046AA
:100ED000F8BD00BF6C070010351800008117000036
:100EE0001918000037B54FF48054002137200D4DFC
:100EF000A84729204FF08041A84760B901A80A49B6
:100F000088470198094A10F0804F01D0032000E083
:100F10000220106004E0013CE7D1044B20461C6035
:100F20003EBD00BF210D0000450E000070070010FF
:100F30001D4B37B5B3F900001C4988471C4C4820AD
:100F4000A0470020A0470020A0470120A047AA20DA
:100F5000A0478720A0474FF47A14FF20144DA847DC
:100F600003068DF8000012D40124FF20104DA8477D
:100F70000DF804000134052CF7D10B4B0D49B3F9E2
:100F800000008847FF20A8479DF800000AE0013CC8
:100F9000E3D10548074AB0F900009047FF20A84771
:100FA0004FF0FF303EBD00BF6C0700103518000049
:100FB000811700001918000010B546F2A810114B57
:100FC000984711481149B0F9000088471024FF20C4
:100FD0000F4A9047013CFAD1204621460D4B9847D5
:100FE00001280AD10C488047012801D10B4902E0B1
:100FF000052802D10A49884710BD0A4A20461460D4
:1010000010BD00BF9D1500006C07001019180000EE
:1010100081170000210D0000310F0000E50E0000D7
:10102000A50D000070070010F8B5104B07460E46DE
:10103000B3F900000E498847FF200E4A9047FE286A
:10104000FAD10025FF20B5420A4C03DAA0477855B3
:101050000135F7E7A047FF20A0470448064BB0F949
:1010600000009847FF20A0470020F8BD6C07001043
:1010700035180000811700001918000038B50C4B16
:1010800005461868421E012A01D8490202E00328D9
:1010900018BF0021074C1120A047044630B928464C
:1010A0004FF40071044B9847204638BD012038BDED
:1010B00070070010210D000029100000F8B5194B31
:1010C00007460E46B3F9000017498847FE20174A25
:1010D00090470025B542154C03DA785DA0470135ED
:1010E000F8E7FF20A047FF20A047FF20A04700F01F
:1010F0001F00052808D00B4A0D4BB2F90000984795
:10110000FF20A0470120F8BDFF20084CA047002881
:10111000FAD0044B0649B3F900008847FF20A047E6
:101120000020F8BD6C070010351800008117000082
:101130001918000038B50C4B05461868421E012AE4
:1011400001D8490202E0032818BF0021074C1820EB
:10115000A047044630B928464FF40071044B984725
:10116000204638BD012038BD70070010210D000059
:10117000BD1000007FB509200021214B984708B120
:1011800000203AE0684610211E4A90470028F7D117
:1011900068467F217E221C4CA04710BB1B4A10686A
:1011A0000328EDD049213E226846A04731212F2255
:1011B00005466846A0475321064650226846A04788
:1011C0000236012101FA00F301FA06F1681C4843D6
:1011D000B3F5007F02D35A0A50430EE05843400A49
:1011E0000BE00128CCD1094801680329C8D1684621
:1011F00045213022A047431C980204B070BD00BFB7
:10120000D50D000029100000950C0000700700109B
:1012100010B50C4C00230C482360804708B901200E
:1012200010BD0A4988474FF400712060084A102019
:10123000904704460028F2D10648074B98472046BD
:1012400010BD00BF74070010B90F00007511000039
:10125000210D000000093D009D15000010B5174B41
:10126000174CD3F8C420D3F8C41042F00040C3F8A0
:10127000C400D4F8F41F41F01203D4F8F41FC4F8EA
:10128000F43FD4F8F82F122AFBD10E4C6068626844
:1012900020F0705161606368626843F0A050606044
:1012A000094A90472169226921F44033236120696A
:1012B000226940F48021216110BD00BF00C00F40B1
:1012C00000C0005000C002407103000008B5014B8F
:1012D000984708BD7103000030B572B600F00F04E6
:1012E000C00940EA4400012404FA00F4154BD3F885
:1012F00008224FF48072C3F80822D3F8445244EA1B
:101300000502D3F84452C3F84422D3F84822C3F864
:101310004802D3F84C22C3F84C1262B6D3F800123C
:101320000848C905FAD5D0F808324FF48073C0F8E0
:101330000832D0F83422D0F834321443C0F83442A2
:1013400030BD00BF00C0005010B5084B8020D3F85E
:1013500004220C22C3F804224021054CA04700209F
:101360004021A0470348804710BD00BF00C0005087
:10137000D91200005503000070B572B600F00F04DA
:10138000A30043F00104184BD3F82852C3F82842B5
:10139000D3F82052144C2D05FAD5D4F820329D05EF
:1013A000AD0D95421DDC15B9D4F8183215E00024B6
:1013B0002346934211DA13F0030604BF0A4CD4F813
:1013C0001842CC54240A032E05D1074ED6F82862C1
:1013D00016F0010F01D00133EBE7044988470448B8
:1013E000804762B6284670BD00C000509D020000D4
:1013F00025030000F8B5144672B600F00F02930002
:1014000043F002021A4BD3F82852C3F82822D3F82B
:101410002422C3F82442D4B10B460025144AD2F842
:10142000286216F0020F17D0A54215DA5F784E5DDC
:10143000043546EA07269F7846EA0746DF780433F4
:1014400046EA0766D2F81C72C2F81C62E6E7D3F8D7
:101450001C222546C3F81C42064988470648804797
:10146000BFF36F8F62B6A542B4BF28462046F8BDD1
:1014700000C000509D0200004103000008B500209C
:101480008021014B984708BDF902000037B5344B65
:10149000D3F80022D20704D50120D3F80822C3F8DC
:1014A0000802D3F800322E491B0716D50822D1F8BE
:1014B00008322C48C1F80822804700F01001CBB256
:1014C0005BB1294CA04780204021284CA047002038
:1014D0004021A0470220264A90472149D1F8000226
:1014E00040073BD5D1F83042E10712D50020214B0F
:1014F000984700F00402D1B209B11F4803E010F090
:10150000010002D01D48804703E0694608221C4BB9
:101510009847A20706D58020164A9047C30701D4F2
:101520001849884734F0030306D10D48D0F8082243
:101530000422C0F8082211E008250324084BD3F840
:101540003002054205D0E20142EA6401C8B2094B0B
:10155000984701346D00202CF0D1E6E73EBD00BF76
:1015600000C0005081020000551E0000D91200008A
:1015700041020000C502000095090000A90A000010
:1015800079130000350A0000684620F007018D46F7
:1015900001B5BDE80140854670470000184A194B67
:1015A0001949B2FBF0F21A600B6843B3B0F5C07F83
:1015B0000AD8FE201A6918611968CAB219681A6037
:1015C000186840F47F4018E01049884205D902218C
:1015D0001A6919611A68D0B20FE002F0FE011869A9
:1015E00019611868C1B21868196019681869B2FBE6
:1015F000F0F2501E020641EA124019681860704766
:1016000040787D01800700107807001020BCBE00E4
:101610002DE9F04101270D4600F01F011446DFF8C7
:101620005C81064607FA01F1C0F342103A46C04712
:1016300005F01F0207FA02F1C5F342100022C0476D
:1016400004F01F03C4F3421007FA03F13A46C047FF
:10165000092E454827D1082D6ED1072C6CD1434C5B
:1016600004604348016821F47C2201680260036839
:10167000016843F42824046000F55023D3F8A8013E
:10168000D3F8A81120F44012C3F8A821D3F8A81168
:1016900041F48014D3F8A811C3F8A841D3F8C400CA
:1016A00040F4806232E0122E35D1112D44D10F2C3E
:1016B00042D1304C2E4B0460196821F04042196829
:1016C0001A601868196840F000441C60596821F0DD
:1016D0003C0259685A605868596840F028045C60B8
:1016E00003F55023D3F8AC1121F44062D3F8AC11C8
:1016F000C3F8AC21D3F8AC01D3F8AC1140F480644A
:10170000C3F8AC41D3F8C41041F40012D3F8C410AC
:10171000C3F8C42013E0382E0ED1372D0CD1342C51
:101720000AD1144C124B0460D96841F4703242F46F
:101730004070D968D860D3E70B4B002018600A4C82
:1017400023687BB11A6807221A6000215A6842F2A6
:1017500010705960084B984720684268416842F011
:1017600002034360BDE8F0817807001000000340E9
:1017700000C00240008008409D150000B922000012
:10178000074B1B6853B1DA689107FCD59A689860DB
:10179000D8684207FCD59968C8B2704718467047A8
:1017A0007807001007B5C0F3421100F01F000023B6
:1017B0008DF80100054A68468DF802308DF8043036
:1017C0008DF803308DF8001090470EBD25210000E4
:1017D00008B5014B984708BDA517000008B50A4693
:1017E00000F01F03012101FA03F1C0F34210014B85
:1017F000984708BDB922000008B50121014B984760
:1018000008BD00BFDD17000008B50021014B984757
:1018100008BD00BFDD17000008B5012100F01F035F
:1018200001FA03F1C0F34210014A904708BD00BF1E
:10183000C522000008B5012100F01F0301FA03F1E1
:10184000C0F34210014A904708BD00BFD1220000FA
:1018500038B504460D46044B984720460DB1034960
:1018600000E00349884738BDF91700001918000047
:101870003518000010B5074B0446C0F342109847D6
:1018800004F01F0420FA04F010F0010F14BFFF2031
:10189000002010BDDD220000704770470020704717
:1018A00082B000230093009B834204D200990191EF
:1018B000009A531CF6E7019802B0704738B5054608
:1018C0000A4C322005F00101A047332005F0020147
:1018D000A047342005F00401A047352005F0080199
:1018E000A0479C2005F01001A04738BD511800000A
:1018F00008B54C20014B984708BD00BF7518000083
:1019000008B5074B984707488047074B9847074952
:10191000884708B9064BF9E7064A904708BD00BF5B
:10192000411C00005D12000049130000411E000030
:101930008D140000CD12000070B52049ADF5027D78
:101940001F4B002098471F491F48096801221F4B61
:10195000984700282FD14FF4007001904FF4804435
:10196000019D1948B5F5007F16D102A92A4601ABA1
:10197000174EB04718B1174A134890471BE0A4F51B
:101980008040C00B1449884720462A4602A9134DBF
:10199000A847019BE418E3E70E4A9047B4F5804F4F
:1019A00009D90F4C0F4920688847064B01902168E0
:1019B00018680D4A90470DF5027D70BD860700102E
:1019C0009530000004000010B4090010B53000008C
:1019D0003D32000019340000BD180000050C000065
:1019E00008000010313400000D35000073B5794B4C
:1019F0009847794C4C20A04778494C2088473220A2
:101A0000774DA0473220A8473320A0473320A8476E
:101A10003420A0473420A8473520A0473520A847C8
:101A20009C20A0479C20A8474420A0474420A847CA
:101A30006C4E00214420B0474520A0474520A847D0
:101A400000214520B0474620A0474620A847002156
:101A50004620B0474720A0474720A84700214720FD
:101A6000B0471F20604A9047604A03200221604B24
:101A700098474FF480520092009810B1009B5A1E74
:101A8000F9E708210920072206235A4CA0475A49A2
:101A9000884708B9594DA847594EB04720B1594A0F
:101AA000904718B1584B984758488047584CA04722
:101AB0000028FBD1A0470028FCD15649564E884744
:101AC000564D5748A847B268564B4FF48042B26013
:101AD0000120D3F88020AA24C3F88000D3F88C20FA
:101AE0005521C3F88C40D3F88C20C3F88C10D3F860
:101AF00088604C4D16F00072F9D1D5F88030C5F8E9
:101B00008020D5F88C30AA23C5F88C305520D5F824
:101B10008C30C5F88C00434CD4F8881011F08075D7
:101B2000F9D1D4F8A010AA26C4F8A050D4F8AC205B
:101B3000C4F8AC60D4F8AC205522C4F8AC20394BC2
:101B4000D3F8A80010F40074F9D1196818680D05CD
:101B50002E0D1E601A68186842F4A0411960D3F86F
:101B60000411C3F80441D3F80C11C3F80C41D3F8A5
:101B7000A0114FF47A70C3F8A041284B9847BFF3E7
:101B80005F8FBFF34F8FBFF36F8F4FF48040D0F85C
:101B900000D0D0F804F003200221144A144CA047CE
:101BA0001B4DA8470028FBD14FF480260196019ECB
:101BB00016B1019D6E1EF9E7BFF34F8F164B1A4801
:101BC000DA6802F4E06141EA0004DA68DC60BFF33D
:101BD0004F8FFEE739220000D117000009180000DE
:101BE000F917000051180000BD18000040420F0016
:101BF00005070000C50C0000111200003919000093
:101C0000F11800001F2200002B2200000119000023
:101C1000650700001D07000000ED00E0A1180000AE
:101C2000C0C62D0000C00F400400FA0500487047F0
:101C3000A1A16DB9FEE7FEE7FEE7FEE7FEE70000C3
:101C400008B50348034B9847034A0448026008BD9F
:101C50000C000010A908000000400000DC09001082
:101C60000D4B81890360038A0C4A43600C4802EBE8
:101C7000412101607BB1CB180A490B4852189342AD
:101C80000A4B03D803220270052203E00A2208212E
:101C9000027019701A717047E009001000400000CE
:101CA000DC09001000C00700D809001085000010F2
:101CB0000D4B092230B51A7084890C490C4D01EB8B
:101CC00044232B60028A0B4D9C1849198C4202D880
:101CD0000360426030BD00230122037143718371B0
:101CE000C371027230BD00BFD8090010004000006F
:101CF000DC09001000C00700044B002202201A700B
:101D000018710349034B1960704700BF850000102C
:101D100000400000DC090010044B002202201A7071
:101D200018710349034B1960704700BF850000100C
:101D300000400000DC09001008B5837A03F07F0141
:101D400021291ED1C27A531E052B1AD8DFE803F0D1
:101D50000305070C0E170B4B12E00B4B10E00B4961
:101D600000230160062205E0094B09E00949002330
:101D700001600122027143718371C37108BD064B7A
:101D8000984708BD611C0000B11C000085000010D0
:101D9000F91C0000D8090010191D000038B5837A1D
:101DA000044603F07F0021283AD1E17A02292FD09E
:101DB000032902D0012933D108E01A4B1A491879B6
:101DC000082808702CD1194A904738BD228AC2B120
:101DD000174D18492A68A2F58040C00B8847164B5A
:101DE000286816494FF4007298470E4B28B92968A5
:101DF000208A0A182A60052108E006221A700A21A2
:101E000004E0094B06201870064B0821197138BDF3
:101E1000044B092018710648218A02685318036090
:101E200038BD00BF85000010D8090010CD12000099
:101E3000DC090010BD180000050C0000E0090010CE
:101E4000034B1878B0F108014A4252EB0100704789
:101E5000D809001008B50C4B1878082803D00628BC
:101E600001D007280FD109498847BFF34F8F084B8E
:101E70000849DA6802F4E060DA6840EA0102DA60F0
:101E8000BFF34F8FFEE708BDD8090010CD12000048
:101E900000ED00E00400FA05FEE7FEE7FEE7FEE7DE
:101EA000FEE7000008B5064B9847064B98470648E2
:101EB000064B984708BDFEE7FEE7FEE7FEE7FEE7B4
:101EC000E92200002D230000000000007D23000017
:101ED00010B5294BD3F88820D3F80C11C2F3016058
:101EE000032801F00301254A33D101290CD002292E
:101EF0001BD0D3F88840D3F88800D3F804116304CA
:101F00005C0C631C1E4C09E0D3F88840D3F88800B1
:101F1000D3F8041163045C0C631C1A4C6343C0F3D4
:101F200007400130B3FBF0F00EE0D3F88800D3F89F
:101F30008840D3F8041143045808C4F3074300F55C
:101F400080300133B0FBF3F0C9B24B1CB0FBF3F0AF
:101F50000FE0D3F80431D8B2431C012903D0022981
:101F600003D0094903E0094901E04FF40041B1FB06
:101F7000F3F0106010BD00BF00C00F408C000010D7
:101F800000127A0000366E0100093D00001BB70008
:101F900010B55D4B86B0D3F8A0212022C3F8A02154
:101FA000D3F8A001840603D5D3F8A0114806FBD5C9
:101FB000D3F8A8210022C3F8A821D3F8AC1101203E
:101FC000C3F8AC21D3F80C210221C3F80C01D3F8DB
:101FD0000421C3F8041106AA362342F8183D6846C6
:101FE00001A94A4A90470298474C10F4801FD4F840
:101FF000843001D00E2100E04549C4F88410D4F8A3
:102000008C30AA23C4F88C305522D4F88C30C4F814
:102010008C203D4C0120D4F88020AA21C4F88000F7
:10202000D4F88C205523C4F88C10D4F88C20C4F834
:102030008C30D4F88800344A4101FAD50324D2F810
:102040008030AA21C2F88040D2F88C30C2F88C10BF
:10205000D2F88C305523C2F88C302B4CD4F8882021
:1020600012F0407FF9D02320D4F8A420AA21C4F88C
:10207000A400D4F8AC205523C4F8AC10D4F8AC209C
:10208000C4F8AC300122D4F8A000C4F8A020D4F8E1
:10209000AC00C4F8AC10D4F8AC10C4F8AC301A4C96
:1020A000D4F8A8004205FAD50321D4F8A020AA2329
:1020B000C4F8A010D4F8AC20C4F8AC30D4F8AC20EC
:1020C0005522C4F8AC20104CD4F8A80010F4407F7E
:1020D000F9D010498847D4F8C4300F4B0022C4F817
:1020E000C430D4F8C83145F23A00C4F8C8210B49CD
:1020F000236820600B6823F04042094B22F07F00E8
:102100009968986006B010BD00C00F40F11FFF1F16
:1021100018000100D11E000008842080000000008B
:1021200000ED00E070B543780278847851000F2B01
:1021300001D9103B01318D005B0005F1804603257C
:1021400005FA03F504FA03F406F53032116821EAC2
:10215000050141EA0406166042780378C5785B0001
:102160000F2A01D9103A01335200032606FA02F66B
:1021700005FA02F20F4951F8234024EA06042243EB
:1021800041F823200278417800790B4B012807D1D0
:1021900000FA01F153F822400C4343F8224070BD8D
:1021A000012000FA01F153F8220020EA010043F86F
:1021B000220070BD40C0024068C0024006299ABF9C
:1021C0000E4B33F811300023012A0D4A04D1426826
:1021D000134342684360704790426FEA030305D19E
:1021E000426840F28F3111400B4004E0416840F2F8
:1021F00007320A4013404268436070478A37000044
:1022000000000140007D7047836840F2CF301840E5
:102210007047007D80F04001C1F3801070474FF09F
:1022200080431878C0F3800070474FF080431A78DD
:1022300002F0FB001870704772B64FF08043AA227C
:1022400055201A72187262B67047000004280CD824
:10225000064B53F8200040B112B10368194302E065
:10226000026822EA010102680160704798370000A5
:10227000042805D8034B53F8200008B18269816116
:10228000704700BF98370000042805D8034B53F867
:10229000200008B1C269C161704700BF98370000D3
:1022A000042805D8034B53F8200010B1406970474B
:1022B000002070479837000008B5014B984708BDCB
:1022C0004D22000008B5014B984708BD712200005F
:1022D00008B5014B984708BD8922000008B5014B9D
:1022E000984708BDA12200000F4B4FF0FF31D3F8F3
:1022F0008020C3F88010D3F884200122C3F8842002
:10230000D3F88001C3F88011D3F88411C3F8842175
:10231000002303F160400133002100F56142202BCE
:1023200082F80013F5D1704700E100E0114B4FF047
:1023300020615A6810485960002299689A60D968EB
:10234000D86019691A6159695A6102F16041013214
:10235000002001F56D41202A064B0876F5D15A6A16
:1023600058624FF0FF309A6A9862D96AD862196B46
:102370001863704700ED00E00000FA05014B9A6811
:102380009860704700ED00E010B50023934203D041
:10239000CC5CC4540133F9E710BD000008B50368F4
:1023A00073B11A7862B1D9888088814208D158788F
:1023B000044B984710F0010F0CBF0020032008BD0C
:1023C000092008BD513600002DE9F041D0F82A500F
:1023D00004468D420E4602D10020BDE8F08103790B
:1023E00013B9002EF8D023E000F12E0841464078C2
:1023F0002A460123154FB84710B10120BDE8F081EE
:102400002071D4F81A20D4F81E0011188D42E8D299
:10241000E778012FE5D9D4F81A306078ED184146F5
:102420002A460123DFF824C0013FE047FFB2F0E76E
:10243000607804F12E0132460123054DA84700289B
:10244000DBD1C4F82A60BDE8F08100BF95360000FA
:102450006936000070B5314B0021044698470346A9
:10246000002B5AD12278032A4FD1607900284CD012
:1024700084F82A3084F82B3084F82C3084F82D30FE
:1024800004F12E010025CD540133B3F5007FF9D1BD
:1024900052205526AA2284F82E0084F82F00D4F862
:1024A0000E00612384F82C6284F82D2241267222CA
:1024B00084F8303084F8316084F8122284F81322D2
:1024C00084F81462020E060C84F8153284F81602A1
:1024D000C0F30723D4F80A0084F8173284F818628E
:1024E000C0F30723060C84F81922020E84F81A029E
:1024F00084F81B3284F81C6284F81D226078D4F8BA
:1025000012200123064EB0476571002160780A460B
:10251000044B9847003018BF012070BDC92300004C
:1025200095360000C1360000CA7E8B7E032843EA40
:10253000022305D1487D097D41EA002243EA024396
:102540001846704738B504460A46407804F12E0113
:1025500001231C4DA84780BB94F82D2294F82C32FF
:1025600043EA0221184B0AB29A4228D194F8662015
:1025700094F86710130494F8642043EA016194F816
:102580006530114341EA0321104B21F07F429A420A
:1025900016D094F8820094F88310020494F8800016
:1025A00042EA016194F88120014341EA022121F0CD
:1025B0007F40C01A18BF012038BD032038BD02205B
:1025C00038BD00BF6936000055AAFFFF46415400E0
:1025D0002DE9F041154602681378303B092B05D8E8
:1025E00054783A2C02D10232026000E0002300202D
:1025F0000860002B40F06E81BF4C2468002C00F076
:102600006C810C60217881B16078BC4B9847C10720
:102610000BD4002D00F0648100F00401C8B2002842
:1026200014BF0A200020BDE8F0810020B44A2070C9
:1026300060709047C20700F156812DB100F0040090
:10264000C1B2002940F0528100212046AD4DA8477B
:10265000012817D194F8F03113B90D20BDE8F081AD
:1026600094F8F66194F8F721300494F8F43140EAD4
:10267000026194F8F521194341EA022620463146C9
:10268000A84700E00026032800F033810028E4D1A9
:1026900094F83A0094F8391041EA0023B3F5007F2A
:1026A000DBD194F8455094F8442052EA05210DD12D
:1026B00094F8541094F855000B0494F8522043EA0F
:1026C000006594F85300154345EA002194F83E5004
:1026D000C4F81A106B1E012BE570BED894F83B208D
:1026E000A270002AB9D0501E1042B6D194F8400012
:1026F00094F83F3043EA002398B21B072081ACD105
:1027000094F8427094F8413053EA07230DD194F8BD
:10271000503094F851701B0443EA076394F84E70EC
:102720003B4394F84F7043EA072394F83D8094F8B4
:102730003C7057EA082890D005FB01FC08EB101705
:102740006744BB4289D3DB1BB3FBF2F3002B84D07D
:1027500040F6F575AB4206D94FF6F57293428CBF41
:102760000325022500E001250233BF1906EB08020C
:10277000032DC4F81630C4F82670C4F81E2014D1F6
:1027800000287FF46AAF94F85C2094F85D0012048E
:1027900042EA006294F85A00024394F85B0042EA6D
:1027A0000022C4F82220980010E000283FF455AF22
:1027B0000CEB0200022DC4F8220001D1580005E004
:1027C00003225A4303F0010303EB520000F2FF130C
:1027D000B1EB532FFFF441AF00204FF0FF31032D39
:1027E000A173E17321746174A072E072207360734D
:1027F0005DD194F85F2094F85E30607143EA022165
:102800007218C4F81220607804F12E0101233E4EA4
:10281000B04700284BD194F82D0294F82C2242EABC
:1028200000233A4819B2814241D194F8302094F8FB
:102830003130110441EA036094F82E3094F82F20CF
:10284000184340EA02213248814230D194F81422E0
:1028500094F81532110441EA036094F8123294F8A6
:102860001322184340EA02212A4881421FD194F8DA
:102870001C3294F81D22190441EA026094F81A22CD
:1028800094F81B32104394F8182240EA032194F87C
:1028900019021304C4F80A1043EA006194F81602FE
:1028A00094F81722014341EA0223C4F80E301A4972
:1028B00025700888421C93B200200B802071E380B1
:1028C00084F82A0084F82B0084F82C0084F82D006A
:1028D000BDE8F0810B20BDE8F0810C20BDE8F0815F
:1028E0002846BDE8F0810320BDE8F0810A20BDE85C
:1028F000F0810120BDE8F081B800001051360000E1
:1029000039360000452500006936000055AAFFFF52
:102910005252614172724161B4000010D0F8163019
:1029200002399A1E914205D28278D0F8260002FB25
:10293000010070470020704701292DE9F04104464D
:102940000D4666D9D0F81630994262D20178022934
:102950002BD003293CD0012957D1D0F81E2005EBFC
:10296000550602EB56212C4FB84700284DD1D4F81C
:102970001E10F005013604EBD05301EB5621204622
:1029800093F82E80B84700283FD1F60504EBD654C3
:1029900094F82E20EB0748EA022002D50009BDE892
:1029A000F0810305180DBDE8F081D0F81E101A4B18
:1029B00001EB1521984740BB2D06ED0D60196419F8
:1029C00090F82E2094F82F1042EA0120BDE8F08103
:1029D000D0F81E10104A01EBD5119047A8B96D062A
:1029E000ED0D631993F8310093F830102E33020681
:1029F0005B78641942EA014194F82E2041EA0320F1
:102A0000104320F07040BDE8F0814FF0FF30BDE88A
:102A1000F0810120BDE8F081C923000070B50D46AA
:102A2000C18081680446012901D1022070BD03687C
:102A3000D3F816209142F8D299B91878032802D118
:102A4000D3F8221069B9002121736173A173E17376
:102A50001A89AA42E9D9D3F8220000EB15132361A1
:102A600019E09E783601B54220680ED30F4A904790
:102A7000421C014618D00128D7D92068D0F816305A
:102A80009942D2D2AD1BADB2EDE7E160084B984759
:102A900000EB15112161216805F00F0501EB4515CB
:102AA0002E356561002070BD012070BD3929000000
:102AB0001D29000010B5084BC1880446984750B93D
:102AC00020682169054A904728B96169E5230B70A0
:102AD000216801220A7110BD1D2A0000C9230000CF
:102AE0000129F8B504460D46164677D9D0F81630B8
:102AF000994273D2017802293CD003294CD0012994
:102B000068D1D0F81E2005EB550702EB5721344B56
:102B1000984700285FD1F805C20D15F00105F3B202
:102B200007D0A11891F82E0000F00F0141EA03131D
:102B3000DBB2A21882F82E30D4F81E100120013723
:102B4000207101EB57212046254B9847002842D1A0
:102B5000FF05FA0D15B1C6F3071607E0A11891F8A5
:102B60002E30C6F3032623F00F073E43A71887F83D
:102B70002E6030E0D0F81E30194A03EB1521904743
:102B800048BB2D06E90D631883F82E60C6F30726AF
:102B90001D4683F82F601EE0D0F81E20104B02EB7C
:102BA000D5119847B8B96D06E90D631893F831202F
:102BB0001D46110601F070421643C6F30721320C80
:102BC00083F82E60360E83F82F1083F8302083F8B8
:102BD000316000E0022001222271F8BD0220F8BD20
:102BE000C9230000F8B505460F4641B9D0F80A6080
:102BF0007EB1D0F81600864228BF01260AE0234B9A
:102C0000984701283FD9D5F8161088423CD33E4654
:102C100000E001263446D5F816200134944204D34E
:102C2000012E01D80020F8BD022428462146174B6A
:102C3000984748B1431C02D14FF0FF30F8BD01283E
:102C400021D0B442E7D1EDE7284621466FF070422B
:102C50000F4EB047A8B95FB9D5F80E00C5F80A40C5
:102C6000411C0CD0411E0122C5F80E106A7106E00D
:102C7000284639462246B0470028EDD001E02046DC
:102C8000F8BD0128D8D00120F8BD00BF39290000C7
:102C9000E12A00002DE9F843C6880446701C86B27C
:102CA0000F4616B90420BDE8F8832369002BF9D03C
:102CB00016F00F0861D1591C2161E168206819B92B
:102CC0000289B242EED958E08278531E13EA1612F6
:102CD00053D1314DA8470128054602D80220BDE84E
:102CE000F883411C02D10120BDE8F8832068D0F8A8
:102CF00016108D423BD3002FD4D0E168274A90476D
:102D00000546002844D00128E8D0421CEBD02068BA
:102D10000021234B98470028E5D121682E31002758
:102D20000F540130B0F5007FF9D1D4F80090294656
:102D300048461C4A9047C9F82A0020688378BB425D
:102D400010D90123037120680021154A90470028FB
:102D5000C9D120680137D0F82A10FFB24B1CC0F847
:102D60002A30EAE7D0F82A10CF1BC0F82A70E560B5
:102D7000206829460B4A904720612068E68000EBD6
:102D8000481808F12E08C4F814800020BDE8F88324
:102D90000720BDE8F88300BF39290000E52B0000BB
:102DA000C92300001D2900002DE9F0410B780446DD
:102DB0002F2B0E4601D05C2B00D101360025257249
:102DC0006572A572E57230781F2852D820462946D0
:102DD0005F4B984725756575A575E575BDE8F0816C
:102DE0005C2946D0A56900262022AA5501360B2E63
:102DF000FAD10020064608210246BB5D0136202B91
:102E00003DD8BE19202B94BF0423002300287FD077
:102E10002878E52801D105202870082901D19100E2
:102E2000CAB202F00300012802F00C0108BF43F00F
:102E30001003042908BF43F00803EB722046002169
:102E4000434B9847002836D0A169CB7A002851D14E
:102E500003F00402D1B2002978D16169C87A00F088
:102E60001003DAB2002A50D025683A4F2878B847C4
:102E7000A0603178374601362F29B1D1F9E72F2BE1
:102E8000BFD05C2BBDD02E2B59D0884240D213F03E
:102E9000800F06D0DFF8C8C0803B1CF8033042F03A
:102EA0000302DFF8C08018F801CFBCF1000F32D068
:102EB0009C45F8D12CE020682169274A90470028DA
:102EC000C2D16269117899B1D37A03F00801CBB20B
:102ED0004BB9A7690346D55CF95C01338D4202D139
:102EE0000B2BF8D1B0E7204600211C4A9047A9E7F8
:102EF0000420A9E7042829D103F00401C8B200285E
:102F000014BF04200520BDE8F0810520BDE8F08154
:102F10000620BDE8F081A3F1410CBCF1190F02D8E5
:102F200042F0020208E0A3F1610CBCF1190F03D8D2
:102F3000203B42F00102DBB22B5401305DE708294F
:102F4000E6D192000846D2B20B2156E7BDE8F081E7
:102F50001D2A000029250000C9230000952C00002F
:102F6000BB370000AB37000038B50021154B0446D5
:102F70009847054618BB20682169134A90470546C3
:102F8000E8B960690178E52905D021B12046012121
:102F90000E4DA847EDE7206821690B4B9847054681
:102FA00068B9606929460022425401312029FAD1CA
:102FB0000B22A169064B984720680122027128461E
:102FC00038BD00BF1D2A0000C9230000952C000059
:102FD0008923000010B5042304462169B9B1206893
:102FE000114B9847E8B962691178C9B1E52906D053
:102FF0002E2904D0D37A03F00802D1B299B10B4B39
:1030000020460021984703460028E6D009E01846EC
:103010004BB1002020746074A074E074184610BD99
:1030200004200346F5E710BDC9230000952C0000DD
:10303000012970B504460D4626D9D0F816309942BC
:1030400022D2D4F81600854205D2204629460F4ADE
:103050009047064608B9002070BD012814D0411CD5
:1030600010D0204629460022094B984768B9D4F869
:103070000E104A1C04D04D1C0120C4F80E50607183
:103080003546DEE7012070BD022070BD3929000001
:10309000E12A000048B9064A136803B1187009B163
:1030A000002008701160002070470B20704700BF9F
:1030B000B80000102DE9F0478CB001911646054686
:1030C000002800F0A0800023037043708370C37059
:1030D00005A901A802F01E02514B9847804600281E
:1030E00040F09A8002A80B90019905A84D4A90479C
:1030F0000A9C18B9002C0CBF0620002016F01C0FEB
:1031000006F01F0749D048B1042802D105A8464C53
:10311000A04747F008070A9C48B17CE0E27A12F029
:10312000110F77D106F00401CEB2002E6ED107F058
:103130000803D8B200283DD03C4EB0470026C0F36B
:103140000722010C030EE2732174E672267766777C
:10315000A677E677A0736374DDF81490214699F89A
:103160000000334A90470121A676E67626756675FB
:1031700089F804100646E8B1484631462D4BD9F887
:103180002AA09847002846D10598013EC0F80A6059
:103190005146294A904768B13DE000283BD1E17A89
:1031A00001F01003D8B298BB06F00206F6B20EB1D9
:1031B000C8072FD407F00800C6B20EB147F02007A9
:1031C000059E1B4BD6F82A102C62E961AF7130784E
:1031D000214698472861A07FE27F010441EA02630B
:1031E000227F607F134343EA00210023E9602B72B2
:1031F0006B72AB72EB722B766B76AB76EB762E60E6
:10320000F288AA8008E04FF0090805E0082002E0F3
:10321000042000E00720804640460CB0BDE8F0875F
:10322000D1250000A92D0000692F00002D1C0000F1
:103230002925000031300000C92300002DE9F74F97
:10324000994600238846C9F8003046490446174687
:1032500088470546002840F08280A07901067BD48B
:10326000C2077BD5E668A268B61AB74238BF3E46A9
:10327000002E74D0A168CB0546D1206883785A1EF1
:1032800002EA512313F0FF0B0AD109B9206902E0C9
:103290006169354A904701280AD9431C41D06061D1
:1032A0002368616918460193304A9047019B20B911
:1032B000A27962F07F00A0714EE0770A00EB0B0A62
:1032C00020D09A7807EB0B00904288BFCBEB020727
:1032D000587841465246FBB2DFF89CC0E04700BB3D
:1032E00021680B7963B1D1F82A20CAEB0200B842F9
:1032F00006D208EB40202E314FF400721C4B984749
:103300007F021EE0C4F818A0A7681A4AF805C10D8C
:10331000C1F500772068A169BE4238BF37469047A3
:1033200028B1A57965F07F01A171012517E0A0689A
:103330002368C10503EBD15140462E313A460C4B70
:103340009847A168B8447A18A260D9F80000F61B23
:10335000C319C9F800308BE7022500E0072528468D
:10336000BDE8FE8F9D230000392900001D290000C3
:1033700089230000C92300006936000070B5224B84
:1033800005469847064600283CD1A87900F0200160
:10339000CAB2002A36D01D4E2868E969B0470646F1
:1033A00080BB2C6AE37A43F02000E072E968217761
:1033B000EA68C2F307236377E868010CA177EA683B
:1033C000130EE3772869020CC0F30721130AA076D5
:1033D000E176227563750E488047C0F30721020C21
:1033E000030EA07522766376E175A674E674AE7955
:1033F000296826F020000122A8710A712868054B6F
:1034000098470646304670BD9D230000C923000042
:103410002D1C00005524000010B5044B04469847AD
:1034200018B920706070A070E07010BD7D3300008E
:1034300070B594B014AB43F84C0D2B4C184606A94C
:103440000122A047044600284BD103A80C90019903
:1034500006A8264A90470446002842D10B9E36B162
:10346000F17A11F0010F0CBF0024072400E00624BC
:10347000069D314628781E4B98470546002C30D1D2
:10348000F47A04F01000C2B2CAB1012D13D90DA80C
:1034900006A91C22174B9847174C0DA802210F951F
:1034A000A0470446E8B90DA814498847044620B14E
:1034B000042804D015E0022413E0072411E006A834
:1034C0000F4A9047044660B925B90E4C0698A047AC
:1034D000044606E0069829460B4B98470446002808
:1034E000F3D0204614B070BDD1250000A92D0000F6
:1034F00029250000892300001D2A0000D52F000087
:10350000B52A0000552400003130000070B59AB093
:103510001AAB43F8640D0E4618460CA901223D4B28
:103520009847002874D10C9803A9139012910CA805
:103530000199394CA04700286AD1119900295AD025
:1035400006A80B311522354DA84713A80CA91C223B
:10355000A84713A83146A04700284ED0042857D1C9
:1035600013A82F4A9047002852D1189C132204F127
:103570000D000DF11A01A8479DF81850012045F0E3
:103580002003E3720C9D287115990E9A8A4238D057
:10359000E37A03F01000C1B2002932D02146214A5B
:1035A00028789047204B014628469847014630B37B
:1035B00028461E4A90470C9B50BB93F84F002E287C
:1035C0001FD11978032904D1D3F82200159A824219
:1035D00001D0159800E00020C0F30721020C83F809
:1035E000680083F86910100A012183F8622083F8CB
:1035F0006300197105E004200AE0082008E00220B9
:1036000006E00CA80A4B984710B90C98094A904755
:103610001AB070BDD1250000A92D0000892300003B
:10362000692F0000292500001D290000C923000082
:10363000B52A00005524000008B528B9034B984767
:10364000003018BF012008BD012008BD1112000084
:1036500008B528B9034B9847003018BF012008BDB2
:10366000012008BDF90C000070B50E4615461C4639
:1036700058B944B129463046054B013C9847E4B25D
:1036800005F50075F5E7204670BD042070BD00BF4C
:103690007D10000070B50E4615461C4658B944B161
:1036A00029463046054B013C9847E4B205F50075C4
:1036B000F5E7204670BD042070BD00BF3511000045
:1036C00010B51446C8B9042904D8DFE801F0130A7C
:1036D000050C130001210EE00948804780B22080CC
:1036E00004E0084B00E0064B98472060011C18BF1F
:1036F000012100E00021C8B210BD042010BD00BFB0
:10370000190D00000D0D0000114B124A70B5981AEA
:10371000831018D0591E02EB83040D4654F8042D73
:1037200001F00106904775B126B154F8040D8047A9
:10373000013D08D054F8043D9847013D54F8041D5C
:103740008847013DF6D1BDE8704000F081B800BF68
:10375000603800005C380000024B13B10248FEF7ED
:103760009DB87047000000000937000001020066A4
:1037700069726D776172652E637572006669726D2C
:10378000776172652E62696E00000100020004001C
:10379000080080000001000200C0092020C00920AC
:1037A00040C0092060C0092080C00920222A2B2C9B
:1037B0003A3B3C3D3E3F5B5D7C7F00809A90418E72
:1037C000418F804545454949498E8F9092924F9946
:1037D0004F555559999A9B9C9D9E9F41494F55A580
:1037E000A5A6A7A8A9AAABAC21AEAFB0B1B2B3B49D
:1037F000B5B6B7B8B9BABBBCBDBEBFC0C1C2C3C401
:10380000C5C6C7C8C9CACBCCCDCECFD0D1D2D3D4F0
:10381000D5D6D7D8D9DADBDCDDDEDFE0E1E2E3E4E0
:10382000E5E6E7E8E9EAEBECEDEEEFF0F1F2F3F4D0
:10383000F5F6F7F8F9FAFBFCFDFEFF00F8B500BF5E
:10384000F8BC08BC9E467047593700004D01000087
:10385000F8B500BFF8BC08BC9E46704729010000BF
:1038600000000000903800000000001090000000F0
:04387000500B0000F9
:1038740058C8FF7F0100000028E6FF7FB0B0B08089
:083884004CE6FF7F010000008B
:10389000000000007C3700006F37000012010002BA
:1038A00000000040501D15604000010200010902A7
:1038B0001B0001010080FA0904000000FE01020360
:1038C00009210BF40100020101040309041A035346
:1038D000006D006F006F007400680069006500579C
:1038E00000610072006500120353006D006F006FED
:1038F0000074006800690065001A0353006D006FD2
:10390000006F0074006800690065002000440046F4
:10391000005500000000F40100020000000E27071F
:04000003000000CD2C
:00000001FF
